:020000040800F2
:1000000080180020C5010008F72600089D2300087D
:10001000F526000869070008B52B0008000000005D
:10002000000000000000000000000000E9270008B8
:100030005908000800000000F9260008EB27000816
:10004000DF010008DF010008DF010008DF01000810
:10005000DF010008DF010008DF010008DF01000800
:10006000DF010008DF010008DF010008DF010008F0
:10007000DF010008DF010008DF010008DF010008E0
:10008000DF010008DF010008DF0100087907000830
:100090006D070008DF010008DF010008DF0100082C
:1000A000DF010008DF010008DF010008DF010008B0
:1000B000DF010008DF010008DF010008DF010008A0
:1000C000DF010008DF010008DF010008DF01000890
:1000D000DF010008F52A0008DF010008DF01000841
:1000E000DF010008DF010008DF010008DF01000870
:1000F000DF010008DF010008DF010008DF01000860
:10010000DF010008DF010008DF010008DF0100084F
:10011000DF010008DF010008DF010008DF0100083F
:10012000DF0100088507000891070008DF010008CB
:10013000DF010008DF010008DF010008DF0100081F
:10014000DF010008DF010008DF010008DF0100080F
:10015000DF0100089D070008A9070008592B0008C7
:10016000DF010008DF010008DF010008DF010008EF
:10017000DF010008DF010008DF01000800000000C7
:10018000DF010008DF010008DF010008DF010008CF
:10019000DF010008DF010008DF010008DF010008BF
:1001A0000000000000000000DF010008DFF810D0B0
:1001B00000F034FA00480047552E0008AFF30080E5
:1001C000801800200648804706480047FEE7FEE703
:1001D000FEE7FEE7FEE7FEE7FEE7FEE7FEE7FEE7F7
:1001E00089280008AD0100082DE9F05F05460020D0
:1001F00092469B4688460646814640241BE0284698
:1002000041464746224600F065F953465A46C01A11
:10021000914110D311461846224600F04CF92D1A90
:1002200067EB01084F4622460120002100F043F908
:1002300017EB00094E41201EA4F10104DFDC484603
:1002400031462A464346BDE8F09F40EA01039B073A
:1002500003D009E008C9121F08C0042AFAD203E03B
:1002600011F8013B00F8013B521EF9D270470346DA
:1002700011F8012B00F8012B002AF9D1184670471C
:100280002DE9FE4F81EA030404F0004421F000410F
:1002900000944FF0000B23F0004350EA01045ED0BD
:1002A00052EA03045BD0C3F30A54C1F30A552C4449
:1002B000A4F2F3340194A0FB0254C1F3130141F4FE
:1002C0008011C3F3130343F4801301FB024400FBCA
:1002D000034E840A970A44EA815447EA8357A4FBF1
:1002E000076802958D0A05FB07854FEA932C04FBEE
:1002F0000C542705029D4FEA065847EA1637B5EB1E
:1003000008056EEB070C870E920E47EA811742EA4A
:100310008312A7FB0201B6EB0B0164EB00042B0D6B
:1003200043EA0C335E1844EB1C50DA465146E7FBB7
:100330000201C5F313044FEA0B3343EA14534FEAA7
:100340000432019C43EA0603A4F10C040294009CCD
:10035000CDE900B400F014F903B0BDE8F08F00203F
:100360000146F9E72DE9F04D81EA030404F0004B62
:1003700021F0004514464FF0000A23F0004150EAF6
:10038000050220D054EA01021DD0C5F30A570246E7
:10039000C5F31303C1F31300C1F30A5640F48015EB
:1003A00043F48013A7EB0608101BD64608F2FD386D
:1003B00073EB050002D308F1010801E092185B41DC
:1003C000B8F1000F03DA00200146BDE8F08D0020EF
:1003D0004FF48011064684460EE0171B73EB0507A9
:1003E00005D3121B63EB050306434CEA010C4908D5
:1003F0004FEA300092185B4150EA0107EDD152EA12
:10040000030012D082EA040083EA0501084305D004
:10041000101BAB4106D20122002306E000224FF060
:10042000004302E06FF0010253101AEB06004CEBA0
:10043000085110EB0A0041EB0B01BDE8F04D00F054
:1004400090B80EB5C10F80EAE0700844CA070021D9
:1004500040F233438DE80E000A460B4600F090F858
:1004600003B000BD0EB540F2334102910021CDE949
:1004700000110A460B4600F083F803B000BD01F0FE
:10048000004330B421F0004150EA010206D00A0DC9
:10049000A2F56072C1F31301002A02DC30BC002017
:1004A0007047440F44EAC104C100E01830BC00EBBF
:1004B000C25000F01FB8202A04DB203A00FA02F1F3
:1004C000002070479140C2F1200320FA03F3194342
:1004D00090407047202A04DB203A21FA02F00021E4
:1004E000704721FA02F3D040C2F120029140084344
:1004F000194670470029A8BF7047401C490008BF33
:1005000020F00100704710B4B0FA80FC00FA0CF043
:1005100050EA010404BF10BC704749B1CCF120047B
:1005200021FA04F411FA0CF118BF01212143084308
:10053000A3EB0C01CB1D4FEA00614FEA102042BF34
:10054000002010BC704700EBC35010440029A4BF2A
:1005500010BC7047401C490008BF20F0010010BCCF
:10056000704710B5141E73F1000408DA401C41F105
:10057000000192185B411A4301D120F0010010BD27
:100580002DE9F04D92469B4611B1B1FA81F202E09D
:10059000B0FA80F220329046FFF78DFF04460F46F6
:1005A00040EA0A0041EA0B0153465A46084313D079
:1005B000114653EA010019D0C8F140025046FFF736
:1005C00089FF05460E46504659464246FFF773FFDF
:1005D000084305D0012004E020463946BDE8F08DEF
:1005E0000020054346EAE0762C4337430A9863052A
:1005F000E40AA0EB08000022FD0A44EA47540A304E
:1006000002D500200146E9E7010510196941DDE93D
:10061000084500196941BDE8F04DA2E7064C074DB9
:1006200006E0E06840F0010394E8070098471034C2
:10063000AC42F6D3FFF7BEFDD8440008F8440008EA
:10064000464910B54A6822F440324A604A68436815
:100650001A434A6001684A6822F480724A6001685D
:100660004A68036942EA03224A6001684A6822F044
:1006700040724A6001684A6883681A434A600168A8
:100680008A6822F400628A6001688A68C3681A4333
:100690008A60816A6FF07062D14201688A6822F0D4
:1006A00070628A6001688A680CD0836A1A438A6023
:1006B00001688A6822F040528A6001688A68C36AC9
:1006C0001A4301E022F040528A6001688A6822F0F1
:1006D00002028A6001688A68037E42EA43028A60F5
:1006E00090F82010002901684A680FD042F4006297
:1006F0004A6001684A6822F460424A6001684A68B8
:10070000174C436A04EB43331A4301E022F40062BE
:100710004A600168CA6A22F47002CA620168CA6A41
:10072000838B104C04EB03531A43CA6201688A6836
:1007300022F400728A6001688A6890F8303042EAD8
:1007400043228A6001688A6822F480628A600168B4
:100750008A68406942EA8020886010BD0023014019
:1007600000E0FFFF0000F0FFFEE70000014800F09E
:10077000FCBA000070000020014800F0F6BA00004A
:1007800070000020014800F031BD00007002002020
:10079000014800F02BBD0000B0010020014800F02E
:1007A00025BD0000D0020020014800F01FBD000060
:1007B0001002002001681823CAB2103AB2FBF3F20B
:1007C000054B6FF30901032A9B5CC36500D9091D22
:1007D00081650846704700004E3C000810B5014690
:1007E00000208B698A6A4FF0C07453B1B3F5005F83
:1007F00015D072B1012A0CD0022A0AD0032A09D1DD
:1008000004E01AB1012A06D0022A03D1C96AC9013B
:1008100000D5012010BDC96AA142FAD010BD002A3E
:10082000F7D0012AF2D0022AF3D0032AF3D010BD68
:1008300030B50468256825F4802525600468636068
:100840008368402B036803D099600068C26030BDA4
:100850009A600068C16030BD7047704778B5002469
:10086000009490F83C20012A19D0012280F83C2005
:100870000A6807230568092A13D9EE680A3A02EBC9
:10088000420293409E43EE600B788A680A3B03EB7A
:1008900043039A400368DD682A43DA6010E00220CF
:1008A00078BD2E6902EB420293409E432E610B7885
:1008B0008A6803EB43039A4003681D692A431A615F
:1008C0004A681F23072A13D205686E6B521E02EB7B
:1008D000820293409E436E630A8893B20A79521E45
:1008E00002EB820293400268556B2B43536327E06F
:1008F00005680D2A12D22E6BD21F02EB82029340A2
:100900009E432E630B790A88DB1F92B203EB8303AD
:100910009A4003681D6B2A431A6311E0EE6A0D3A90
:1009200002EB820293409E43EE620B790A880D3BF4
:1009300092B203EB83039A400368DD6A2A43DA62CA
:100940001B4B0568194A9D420AD10D68122D07D12B
:10095000556825F400055560556845F480055560D7
:1009600005689D421DD1134D0B68AB4201D0112B80
:1009700017D1536823F480035360536843F4000392
:1009800053600968A9420CD10B490C4A0968B1FBB4
:10099000F2F101EB8101490000E0491E00910029BC
:1009A000FBD180F83C40002078BD000000230140CE
:1009B00000200140120000100000002040420F0003
:1009C00070B504004FF0000503D0206C002610B174
:1009D00007E0012070BD204600F01CF8666484F832
:1009E0003C60206CC00610D4206C20F4885040F08D
:1009F000020020642046FFF723FE6664206C20F08E
:100A0000020040F00100206400E0012584F83C6011
:100A1000284670BD00B587B0002102910391049172
:100A2000059106910068A0F18041B1F5903119D18E
:100A30000D48016841F480710160006800F4807025
:100A400001900A48016841F001010160006800F06E
:100A500001000190402002900320039002A9044865
:100A600000F034FD07B000BD443802403038024089
:100A70000000024090F82020012A07D0022A05D069
:100A8000416A41F480214162012070470068426957
:100A90000A43426100207047F0B590F82050046886
:100AA000A468012D05D0022D03D0416A41F48021B4
:100AB0005DE014F0406F01D1E50055D5C4F3016449
:100AC000022C03D9416A41F4000150E00125A54000
:100AD0001D608D684FF4C0739DB1CE6835434E687C
:100AE00045EAC605066803EB0417F5514FF4C275D5
:100AF000076805EB04150E697E51097D012905D0B3
:100B000009E00E88CD6845EA4655EBE701684E5985
:100B100046F480764E511179D579567941EA0561CE
:100B200095792D0445EA062529434FF4C6760568D4
:100B300006EB0416A9511178D57841EA056195783C
:100B400052782D0445EA022211434FF4C47502681D
:100B500005EB04155151006803EB0411425842F0B3
:100B6000010242500020F0BD416A41F4001141628F
:100B70000120F0BD10B590F82020012A07D0022AEC
:100B800005D0416A41F480214162012010BD3B48FB
:100B9000D0F8002242F00102C0F80022D0F8002272
:100BA00022F47C52C0F80022D0F800224B6A42EABC
:100BB0000322C0F800220A7D02F01F0301229A409E
:100BC000D0F81C329343C0F81C32CB69B3B9D0F8CB
:100BD0000C329343C0F80C328C894B6864F31F438A
:100BE0004C6900EBC404C4F840320C890B6864F310
:100BF0001F434C6900EBC404C4F84432CB69012B99
:100C000016D1D0F80C321343C0F80C320C884B6864
:100C100064F31F434C6900EBC404C4F840320C89F0
:100C2000CB6864F31F434C6900EBC404C4F844323E
:100C30008B69002BD0F804320ED01343C0F8043275
:100C40000B69002BD0F8143208D01343C0F81432CB
:100C5000096A012904D008E09343EFE79343F5E7DD
:100C6000D0F81C121143C0F81C12D0F8001221F069
:100C70000101C0F80012002010BD00000064004017
:100C8000704730B590F82040012C05D0022C03D0DD
:100C9000416A41F480215DE00468002955D024694F
:100CA000A40754D04FF4D874056804EB01142D59EF
:100CB00015F00405956005682D594ED0ED08556076
:100CC00005682C5904F00204D4604FF4DA74056806
:100CD00004EB01142D5905F00F05156105682D5918
:100CE000C5F30725956105682C59240C54614FF410
:100CF000DC72046802EB0112A4581C700468A4584A
:100D0000240A5C700468A458240C9C700468A258DF
:100D1000120EDA704FF4DE72046802EB0112A4586E
:100D20001C710468A458240A5C710468A458240C3B
:100D30009C710468A258120EDA71006881B10169D1
:100D400041F020010161002030BDE468A8E7416A5C
:100D500041F400114162012030BD6D0D1560AFE717
:100D6000C16841F02001C160EDE72DE9F05F054663
:100D7000006800244669D0F804908768D0F80CB069
:100D8000D0F810A0D0F81880F10748D0F90714D097
:100D900001218160B80703D5284600F00EFA0CE067
:100DA000780702D54FF4006407E0380702D54FF406
:100DB000805402E0284600F0FFF9F80516D52968AE
:100DC0004FF480708860B80503D5284600F0F7F925
:100DD0000CE0780502D544F4005407E0380502D54C
:100DE00044F4804402E0284600F0E8F9F80316D500
:100DF00029684FF480308860B80303D5284600F096
:100E0000E0F90CE0780302D544F4004407E038032D
:100E100002D544F4803402E0284600F0D1F93007CE
:100E200007D55FEACB6004D52968102044F400742C
:100E3000C86070074FF0080707D55FEA0B7004D54C
:100E40002868C760284600F05FF9B00706D5286813
:100E5000C068800702D0284600F058F9700607D510
:100E60005FEACA6004D52968102044F480640861F0
:100E7000B00607D55FEA0A7004D5286807612846DE
:100E800000F06AF9F00606D528680069800702D0EC
:100E9000284600F062F9B00308D55FEAC96005D5BD
:100EA000296810204860284600F058F9F00307D55B
:100EB0005FEA097004D528684760284600F082F987
:100EC000300446D55FEA497040D5F00504D55FEAA5
:100ED000C87001D044F00104B00504D55FEA887001
:100EE00001D544F00204700504D55FEA487001D5CD
:100EF00044F00404300529D518F0700F26D008F00E
:100F00007000402815D006DC102809D020280AD00F
:100F1000302816D10AE050280ED0602811D10EE0FA
:100F200044F008040DE044F010040AE044F020040A
:100F300007E044F0400404E044F0800401E044F49D
:100F400080742868816921F070018161296804201A
:100F50004860002C05D0686A204368622846FFF785
:100F60008FFEBDE8F09F70B5040003D094F8200018
:100F700010B104E0012070BD204600F081F8206827
:100F8000016821F00201016000F090FB0546052692
:100F900004E000F08BFB401B0A2811D82068406851
:100FA0008007F6D42068016841F00101016000F07B
:100FB0007DFB05460BE000F079FB401B0A2806D9B3
:100FC000606A40F40030606284F82060D2E72068F4
:100FD0004068C007EFD0207E0128206801683DD01E
:100FE00021F080010160607E01282068016838D00E
:100FF00021F040010160A07E01282068016833D003
:1010000021F020010160E07E0128206801682ED0D7
:1010100041F010010160207F01282068016829D07B
:1010200021F008010160607F01282068016824D058
:1010300021F004010160D4E902010843D4E904125B
:10104000114308436168491E08432168C8610020B4
:101050006062012084F82000002070BD41F0800112
:10106000C0E741F04001C5E741F02001CAE721F0A7
:101070001001CFE741F00801D4E741F00401D9E7BE
:1010800000B587B00021029103910491059106916A
:101090000068A0F18041B1F5C8412CD11748016822
:1010A00041F000710160006800F000700190144888
:1010B000016841F008010160006800F0080001903B
:1010C000032002900221039105900920069002A9B5
:1010D0000C4800F0FBF900221146132000F056FBEB
:1010E000132000F045FB00221146142000F04EFBB7
:1010F000142000F03DFB07B000BD00004038024066
:1011000030380240000C02407047000010B58AB031
:1011100004462068D0F8B001400D01902068A0F18D
:101120008041B1F5C84113D10198A0F201201028E7
:101130000ED800F0BBFA0749086008AB01AA0021ED
:101140002046FFF79EFD019808A900B201F0A8FD16
:101150000AB010BD180000207047704770470000AB
:1011600070B5044690F82000012804D0606A40F46D
:101170000020606218E0022084F8200020680168E6
:1011800021F00101016000F091FA05460EE000BF78
:1011900000F08CFA401B0A2808D9606A40F400303D
:1011A0006062052084F82000012070BD206840683E
:1011B000C007EDD1606270BD7047704770477047DF
:1011C00070477047704790F83510022903D080218E
:1011D000416501207047052180F8351000680168DD
:1011E00021F0010101600020704700002DE9F84363
:1011F00004464FF00009CDF8009063484FF41651B3
:10120000A56D0068B0FBF1F72E6894F85C1008201B
:1012100000FA01F131420FD021680A6852070BD55C
:101220000A6822F004020A6094F85C108840A86002
:10123000606D40F00100606594F85C104FF00108AB
:1012400008FA01F0304208D021684969090604D53E
:10125000A860606D40F00200606594F85C100420A6
:101260008840304208D021680968890704D5A86001
:10127000606D40F00400606594F85C1010208840B8
:10128000304218D021680968090714D5A860206881
:101290000168490304D50068000308D5A16C07E084
:1012A0000168C90503D4016821F008010160216CBF
:1012B00009B12046884794F85C10202088403042CD
:1012C00031D021680968C9062DD5A86094F8350089
:1012D00005282068016806D0490347D50068000347
:1012E0001DD4616C1CE021F0160101602068416989
:1012F00021F080014161206C08B9A06C20B1206808
:10130000016821F00801016094F85C103F208840DA
:10131000A86084F8349084F83580216D1FE0E16B7B
:1013200009B120468847606D00282BD0606DC0074A
:1013300014D0052084F835002068016821F00101EF
:1013400001600098401C0090B84203D820680068F3
:10135000C007F6D184F8349084F83580E16C002918
:1013600010D001B02046BDE8F04308470168C90528
:10137000D5D4016821F01001016084F8349084F81C
:101380003580CCE7BDE8F883000000202DE9F0416E
:10139000044600F08BF906465CB1002584F8345011
:1013A000022084F835002068016821F00101016005
:1013B0000DE00120BDE8F08100F078F9801B0528E0
:1013C00005D920206065032084F83500F2E7206805
:1013D0000068C007F0D12268116820480140D4E9B4
:1013E00001031843D4E903363343184363691843B0
:1013F000A3691843E3691843236A18430843616AE1
:10140000042903D1D4E90B13194308431060206861
:101410004069666A20F0070130460E430127042820
:101420000CD1A06A0643E06A40B12046FFF7D6F926
:1014300020B14020606584F83570BAE720684661C5
:101440002046FFF7B7F994F85C203F219140816076
:10145000656584F835700020ACE700003F8010F02F
:1014600070B5044690F83400002501280CD0012006
:1014700084F8340094F835600020012E06D084F8FA
:1014800034000225284670BD022070BD022684F873
:10149000356060652046FFF7CBF92068016841F0B0
:1014A00001010160EEE7000070B5044600F0FEF8AF
:1014B0000546601C02D004480078044400F0F6F8A9
:1014C000401BA042FAD370BD040000202DE9F84F64
:1014D00000224FF0010803254FF00F0E0B6808FAA9
:1014E00002F42340A3426ED14E68012E05D0022E95
:1014F00003D0112E01D0122E12D186684FEA420C71
:1015000005FA0CF7BE43CF6807FA0CF7374387603C
:101510004668A6430C79C4F30014944034434460F5
:10152000C668570005FA07FC8C6826EA0C06BC4022
:101530003443C4604C68022C01D0122C13D1D4085F
:1015400000EB8404A346D4F8209054074FEAD46AF1
:101550000EFA0AF629EA06090E6906FA0AF646EABA
:101560000906CBF8206004680E7924EA0C0406F022
:101570000306BE40264306604C68E4006FD53B4C32
:10158000266846F480462660246822F0030604F4A8
:1015900080440094364C3444A446D4F80848960756
:1015A000360F0EFA06F7BC43324FB84201D100277E
:1015B0002EE0314FB84201D1012729E02F4FB84228
:1015C00002D1022724E04AE02D4FB84201D103277F
:1015D0001EE02C4FB84201D1042719E02A4FB8422F
:1015E00001D1052714E0294FB84201D106270FE0A9
:1015F000274FB84201D107270AE0264FB84201D150
:10160000082705E0244FB84201D1092700E00A2746
:10161000B7402743CCF80878204E34684F689C4385
:10162000FF0300D51C4334601C4E361D34684F68E0
:101630009C43BF0300D51C433460184E0836346801
:101640004F689C43FF0200D51C433460134E0C3698
:1016500034684F689C43BF0200D51C433460521C61
:10166000102AFFF43BAFBDE8F88F00004438024079
:101670000030014000000240000402400008024027
:10168000000C02400010024000140240001802400A
:10169000001C02400020024000240240003C0140A7
:1016A0000AB1816170470904FBE7000001488068C6
:1016B000704700000400002002488168027811444D
:1016C00081607047040000200B4810B5016841F4A8
:1016D00000710160016841F480610160016841F4BA
:1016E00080710160032000F071F8002000F006F81E
:1016F00000F024F8002010BD003C024070B50D4DF4
:1017000004464FF47A712878B1FBF0F00A49096871
:10171000B1FBF0F000F03CFC48B9102C07D20022DD
:101720002146501E00F032F800206C6070BD012090
:1017300070BD0000040000200000002081B00A48B5
:10174000016841F480410160006800F4804000902D
:101750000648016841F080510160006800F0805047
:10176000009001B070470000443802404038024009
:10177000002809DB00F01F02012191404009800090
:1017800000F1E020C0F8001170470000F0B40E4BEB
:101790001B680C46C3F30223C3F10705042D00D9CF
:1017A0000425191D072901D2002300E0DB1E0126B4
:1017B00006FA05F1491E214099409E40761E1640CA
:1017C0003143F0BC01F0F7B90CED00E0064900F040
:1017D000070208684FF6FF03184040EA0220034A58
:1017E00010430860704700000CED00E00000FA05AF
:1017F0002DE9F0470E46050065D0DFF81481D8F8D2
:101800000000F7B200F00F00B04207D288F8007075
:10181000D8F8000000F00F00B04254D128683D4CC9
:10182000810712D5400703D5206840F4E0502060BE
:101830002878000703D5206840F4604020602068C5
:10184000A96820F0F000084320602878C0072DD058
:10185000304968680839012812D0022813D00328BB
:1018600011D00968890700292DDA216821F00301C8
:1018700001432160FFF71AFF814641F2883A0EE0EA
:1018800009688903EFE709688901ECE7FFF70EFFB4
:10189000A0EB0901514502D90320BDE8F08720687B
:1018A000696800F00C00B0EB810FEFD1D8F80010A0
:1018B000404601F00F01B14207D90770006800F0FF
:1018C0000F00B04201D00120E7E72878400705D596
:1018D0002068E96820F4E050084320602878000779
:1018E00006D52068296920F4604040EAC1002060E4
:1018F00000F038F82168084AC1F30311515CC84070
:101900000649086006480068FFF7F8FE0020C4E7B3
:10191000003C024008380240363C0008000000202D
:10192000080000200448054900680968044AC1F31A
:101930008221515CC84070470000002008380240F6
:10194000463C00080448054900680968044AC1F398
:101950004231515CC8407047000000200838024006
:10196000463C0008154810B5006810F00C021448F9
:1019700013D01449042A0FD0082A0ED10F4C241F6B
:101980002268236802F03F025B0207D52068C0F39B
:101990008810A0FB010106E0084610BD2168C1F3D4
:1019A0008811A1FB00010023FEF71EFC2168C1F392
:1019B0000141491C4900B0FBF1F010BD083802405C
:1019C0000024F400001BB7002DE9F84F04006ED08E
:1019D0002078DFF83C93C007A9F104054AD009F14B
:1019E00004000168C1F38101012908D00068C0F337
:1019F000810002280AD1D9F80000400206D52868E3
:101A0000800337D560680028E1D033E06068B0F526
:101A1000803F10D0B0F5A02F286810D020F480307F
:101A20002860286820F4802028606068A8B1FFF74B
:101A30003DFE06460DE0286840F48030F4E740F4AF
:101A400080202860F7E700BFFFF730FE801B642886
:101A500073D828688003F7D50CE0FFF727FE064609
:101A600005E000BFFFF722FE801B6428F0D828683D
:101A70008003F7D42078DFF89C8280074FF0000ABB
:101A80003ED5A348001D016811F00C0F08D0006876
:101A9000C0F3810002280BD1D9F80000400207D41E
:101AA0002868800716D5E068012800D112E02BE1F4
:101AB000E068B8B10120C8F80000FFF7F7FD06465E
:101AC00005E000BFFFF7F2FD801B0228C0D82868A0
:101AD0008007F7D52868216920F0F80040EAC100A6
:101AE00028600DE0C8F800A0FFF7E0FD064604E01E
:101AF000FFF7DCFD801B02281FD828688007F7D479
:101B00002078000722D5824E83486169703671B112
:101B100001210160FFF7CAFD074604E0FFF7C6FD9B
:101B2000C01B022809D830688007F7D50EE0C0F83E
:101B300000A0FFF7BBFD074605E082E0FFF7B6FD1A
:101B4000C01B02287DD830688007F7D42078400772
:101B500068D5DFF8BCB100270BF13C0BDBF80000C7
:101B6000C0000BD4DBF8001041F08051CBF800101E
:101B7000DBF80000012700F080500090674E3068CD
:101B8000C00510D4306840F480703060FFF78EFDDF
:101B9000009005E0FFF78AFD0099401A022850D80E
:101BA0003068C005F6D55A4EA0686C3601280FD0B3
:101BB0000528306810D020F001003060306820F037
:101BC00004003060A068B8B1FFF770FD00900FE02E
:101BD000306840F00100F4E740F004003060F7E7BF
:101BE000FFF764FD0099411A41F28830814266D8BE
:101BF00030688007F4D50EE0FFF758FD009007E04D
:101C0000FFF754FD0099411A41F28830814256D8BD
:101C100030688007F4D42FB1DBF8001021F0805138
:101C2000CBF80010A069C8B33949091D0968C1F390
:101C3000810102294AD00228504607D0C8F8600026
:101C400000E03CE0FFF732FD04463BE04746C8F8C1
:101C50006000FFF72BFD064605E000BFFFF726FDFD
:101C6000801B02282BD828688001F7D4D4E907010B
:101C70000843A16A2A4A490802EB0141626A41EA23
:101C80008211084394F82C1040EA0161C9F8001051
:101C900001203866FFF70AFD044606E036E000BF83
:101CA000FFF704FD001B022809D828688001F7D53A
:101CB0002CE000BFFFF7FAFC001B022802D903202A
:101CC000BDE8F88F28688001F4D41FE00128F7D020
:101CD000D9F80000E26900F48001914214D1226A2F
:101CE00000F03F0191420FD147F6C071626A014096
:101CF000914209D1A26A00F44031914204D1E16AD3
:101D000000F07060884201D00120D9E70020D7E7B9
:101D10000438024000004742800E474200700040F5
:101D20000000FFFF70B5040005D00025A56294F8FF
:101D3000510010B106E0012070BD84F850502046DB
:101D400000F030F8022084F851002068016821F08A
:101D500040010160D4E901010843D4E903121143B1
:101D6000084361690843218B01F400710843E1696C
:101D70000843216A0843A16A084321680860A069F2
:101D8000042101EA1040616A084321684860206824
:101D9000C16921F40061C1616565012084F85100C9
:101DA000002070BDF0B587B0002402940394049421
:101DB000059406940068A0F18041B1F598312FD1C7
:101DC0001848016841F480510160006800F48050B7
:101DD00001901548016841F002010160016801F0BD
:101DE00002010191016841F001010160006800F009
:101DF0000100019008200290022603960325059514
:101E00000527069702A90948FFF760FB802002908A
:101E1000039604940595069702A90548FFF756FB1B
:101E200007B0F0BD443802403038024000040240A0
:101E3000000002402DE9F84F044690F850000027BA
:101E40001D461646894601280DD04FF0010B84F837
:101E500050B0FFF72BFC804694F85100BA46012899
:101E600004D002278EE00220BDE8F88FB9F1000F00
:101E70007DD0002E7BD0032084F85100C4F854A0FC
:101E8000C4F83090A686E686C4F838A0A4F83CA032
:101E9000A4F83EA0C4F844A0C4F840A0A068B0F5DF
:101EA000004F04D12068016841F48041016020683E
:101EB0000168490603D4016841F040010160E0680F
:101EC000B0F5006F606803D030B3012E24D040E03D
:101ED00008B1012E1CD1206B21680088C86006E083
:101EE00020688168890709D5216B0988C160206B4A
:101EF000801C2063E08E401EE08609E0FFF7D6FBE1
:101F0000A0EB0800A84202D3681C01D031E07DB3E9
:101F1000E08E0028E4D11FE0206B21680078087370
:101F200006E020688168890709D5216B097801736B
:101F3000206B401C2063E08E401EE08609E0FFF726
:101F4000B5FBA0EB0800A84202D3681C01D010E04A
:101F500075B1E08E0028E4D142462946204600F0C3
:101F6000CDFB08B120206065A06820B107E008E043
:101F7000FFE7032706E02068C16880680090606D75
:101F800000B1012784F851B084F850A038466BE7BF
:101F900010B5401EB0F1807F01D3012010BD4FF07D
:101FA000E02460610F21601700F005FE0020A061B1
:101FB00007202061002010BD7047000070B5026846
:101FC00004461068D168536910F00F0F52D003F027
:101FD000010501F490762E435FD0C20705D0CA05F3
:101FE00003D5E26B42F00102E263420705D5DA074E
:101FF00003D0E26B42F00202E263820705D5DA0702
:1020000003D0E26B42F00402E263020707D501F05D
:1020100020022A4303D0E26B42F00802E263E26B43
:10202000002A33D0800604D5880602D5204600F069
:102030004FFC20684069E16BC0F38010090700D4B1
:1020400028B3204600F036FC2068416949061AD5BD
:10205000416921F040014161606BA0B11B490165FC
:10206000606BFFF7B0F8002810D0606B016DBDE821
:1020700070400847830610D58B060ED52046BDE874
:10208000704000F025BC2046FFF796FF70BD20464B
:10209000FFF792FF0020E06370BD030606D50B0634
:1020A00004D52046BDE8704000F0F2BC4006F3D5F0
:1020B0004806F1D5D168204621F04001D1602021A9
:1020C00084F8391000F069F970BD0000A5280008F7
:1020D00070B5040004D094F83900002510B106E072
:1020E000012070BD84F83850204600F023F82420E9
:1020F00084F839002068C16821F40051C16020468D
:1021000000F032FC2068016921F4904101612068EF
:10211000416921F02A0141612068C16841F4005100
:10212000C160E563202084F8390084F83A0000207B
:1021300070BD00002DE9F04786B0044600250195EA
:102140000295039504950595206882490322022390
:102150000826A0F1804CBCF5F84C70D0DFF8F8C12F
:102160000F15A0F180494FF4807A4FF04008B9F57F
:1021700088397DD0A0F18049B9F58A395BD1DCF886
:10218000000040F02000CCF80000DCF8000000F077
:1021900020000090086840F040000860086800F0E7
:1021A000400000904FF48440019002930492059601
:1021B00001A96A48FFF78AF96A4E694830604FF012
:1021C0002069C6F80490B560F56037617561B56146
:1021D000C6F81CA0356275623046FFF7D7F808B123
:1021E000FEF73BFB6663B463604E5F483060C6F841
:1021F0000490C6F80880F56037617561B561F561D6
:10220000356275623046FFF7C1F808B1FEF725FB6D
:102210002663B463002211464720FFF7B7FA472030
:10222000FFF7A6FA52480068016841680091C1684A
:1022300041F01001C16006B0BDE8F087FFE74D48EE
:10224000D0F800C04CF0004CC0F800C0006800F0AE
:1022500000400090086840F010000860086800F036
:10226000100000900192029301200390049200E07C
:1022700010E0059601A94048FFF728F93F4800689B
:10228000016841680091C16841F01001C16006B069
:10229000BDE8F087DCF8000040F01000CCF800004A
:1022A000DCF8000000F010000090086840F0020028
:1022B0000860086800F002000090C02001900293BE
:1022C00004920720059001A92D48FFF7FFF82E4E34
:1022D0002C4830604FF00069C6F80490B560F56096
:1022E00037617561B561C6F81CA03562756230460C
:1022F000FFF74CF808B1FEF7B0FA6663B463244EFA
:1023000022483060C6F80490C6F80880F56037614E
:102310007561B561F561356275623046FFF736F873
:1023200008B1FEF79AFA2663B4630022114625200D
:10233000FFF72CFA2520FFF71BFA16480068016802
:1023400041680091C16841F01001C16006B0BDE86C
:10235000F087000030380240443802400018024044
:102360002864024070020020A0640240D0020020D5
:10237000700100204038024000100240F0000020B0
:102380000004024040640240B0010020B8640240F2
:10239000100200203001002070477047FEE7000067
:1023A00030B585B00024009401940294039414483D
:1023B000124901604FF48031416084600461047609
:1023C00080F82040C4620F498162C4600125C56164
:1023D00080F830404561FEF7F3FA08B1FEF73DFAA8
:1023E000062000900195029469460548FEF736FAEA
:1023F000002801D0FEF731FA05B030BD00200140C1
:10240000280000200100000F10B510480E4901609F
:102410000321416000218160C1604FF4002202610C
:102420004FF4401242610176012242768176C176F4
:1024300001774177FEF797FD002803D0BDE81040F3
:10244000FEF70BBA10BD00000064004070000020D1
:1024500008B51548016841F480010160006800F486
:1024600080000090002211463920FFF78FF93920B3
:10247000FFF77EF9002211463A20FFF787F93A204C
:10248000FFF776F9002211464520FFF77FF9452036
:10249000FFF76EF9002211464620FFF777F9BDE8F5
:1024A00008404620FFF764B9303802402DE9F04774
:1024B00086B000240194029403940494059448483F
:1024C000016841F010010160016801F01001009104
:1024D000016841F040010160016801F04001009194
:1024E000016841F002010160016801F00201009100
:1024F000016841F001010160016801F001010091F2
:10250000016841F008010160016801F008010091D3
:10251000016841F080010160016801F080010091D3
:10252000016841F020010160006800F02000009087
:102530002C4E00224FF4C0613046FFF7B1F82A4F0D
:1025400000223C213846FFF7ABF8DFF8A0800022DC
:102550004FF4FF714046FFF7A3F8DFF89490002294
:10256000F1144846FFF79CF8DFF888A000224FF4EA
:1025700080415046FFF794F84FF4C0600190012568
:1025800002950394049401A93046FEF79FFF3C2076
:10259000019002950394049401A93846FEF796FF32
:1025A0004FF4FF70019002950394049401A94046F2
:1025B000FEF78CFFE802019002950394049401A9B0
:1025C0004846FEF783FFA803019002950394049404
:1025D00001A95046FEF77AFF06B0BDE8F08700007B
:1025E0003038024000040240001C02400018024043
:1025F000001002400014024010B511480F4901605C
:102600004FF4827141604FF4004181600021C1604C
:10261000016141614FF4007282612822C26101624E
:10262000416281620A21C162FFF77CFB002803D06E
:10263000BDE81040FEF711B910BD000000300140A8
:102640009800002010B50C480A4901604FF4E131B0
:10265000416000218160C16001610C2242618161A1
:10266000C161FFF735FD002803D0BDE81040FEF73B
:10267000F4B810BD007C0040F000002010B50D48FB
:102680000B4901600C49416000218160C1604FF439
:10269000806202610C2242618161C161FFF718FD15
:1026A000002803D0BDE81040FEF7D7B810BD0000E9
:1026B0000010014030010020A086010010B50C4838
:1026C0000A4901604FF4E131416000218160C1603D
:1026D00001610C2242618161C161FFF7F9FC0028B0
:1026E00003D0BDE81040FEF7B8B810BD001401409B
:1026F00070010020FEE770477047000038B50446BF
:102700001248134B0068B0FBF3F04FF47A73584350
:1027100000906068B0F5827F0DD10B4600920022D8
:102720008021204600F016F870B1606D40F0200066
:102730006065032038BD009830B1401E00902068CD
:102740008068C0430006F6D5002038BD0000002098
:1027500000366E012DE9F0411D4617460E4604462F
:10276000DDF8188008E0681C06D0FEF79FFFA0EB9C
:102770000800A8420BD255B12068806836EA0000F4
:1027800030D00020B842EED10020BDE8F0812068B2
:10279000416821F0E00141606068B0F5827F0BD1B3
:1027A000A068B0F5004F02D0B0F5806F04D120686A
:1027B000016821F040010160A06AB0F5005F09D115
:1027C0002068016821F4005101602068016841F42B
:1027D00000510160012084F85100002084F850006D
:1027E0000320D2E70120CDE77047FEF765BF000068
:1027F00030B593B00024089409940A940B94019482
:1028000002940394049405941D48016841F080519A
:102810000160006800F0805000901A48016841F49F
:1028200040410160006800F44040009001200690A3
:102830000004079002250C9580010D9006200E9053
:10284000A8200F9010950420119006A8FFF7BCF85F
:1028500008B1FEF702F80F200190029503944FF49F
:10286000A05004904FF480500590052101A8FEF778
:10287000BFFF002801D0FDF7F0FF13B030BD00000E
:1028800040380240007000400448016841F4700183
:10289000016003494FF000600860704788ED00E078
:1028A00008ED00E010B5806B0021C185C184FFF701
:1028B00083FB10BD0168CA6822F49072CA60016887
:1028C0004A6922F001024A61202180F83A107047DB
:1028D00010B590F83A10222901D0022010BD81686D
:1028E000B1F5805F11D00169002901681FD04968E6
:1028F00001F07F03816A4A1C82620B70C18D491E00
:102900000904090CC18518D02BE00269816A002AEC
:102910000268526805D0D2B20A80816A491C81627D
:10292000ECE7C2F308020A80816A891CF7E74A686B
:10293000816A4B1C83620A70E0E70168CA6822F072
:102940002002CA600168CA6822F48072CA60016805
:102950004A6922F001024A61202180F83A10FFF70B
:102960001BFD002010BD00002DE9F0410446006869
:102970000169E26821F44051114301612169A068B5
:10298000E26908436169114308432168CA6849F252
:102990000C639A430243CA6020684169A26921F42A
:1029A000407111434161E069192764253226B0F571
:1029B000004F354A354920684FF0000806D088425C
:1029C00001D0904236D1FEF7BDFF35E0884201D0FC
:1029D000904202D1FEF7B6FF01E0FEF7A3FF616867
:1029E0004A18A0FB070148EB0803FDF7FDFB014671
:1029F000B0FBF5F00201B1FBF5F06FF0180358439E
:102A000001EB800006EBC000B0FBF5F000F0F80031
:102A100002EB4002B1FBF5F0584301EB800006EBFE
:102A2000C000B0FBF5F000F007002168104488609A
:102A3000BDE8F081FEF776FF61688B0F8A00A0FB8E
:102A40000701FDF7D1FB0146B0FBF5F06FF018026E
:102A5000504301EB800006EB0010B0FBF5F000F0F6
:102A6000F002B1FBF5F002EB0012B1FBF5F06FF0F4
:102A70001803584301EB800006EB0010B0FBF5F0A3
:102A800000F00F00D1E700000014014000100140E9
:102A900090F83910212901D0022070478168B1F5E2
:102AA000805F016A0BD04A1C02620268097851609B
:102AB000C18C491E0904090CC1840ED017E0098895
:102AC0000268C1F30801516001690029016A02D05E
:102AD000491C0162ECE7891CFBE70168CA6822F027
:102AE0008002CA600068C16841F04001C1600020F6
:102AF0007047000038B5174D2868016811F0100FB5
:102B000022D0C16811F0100F1ED0016840680090FB
:102B1000686B0068016821F001010160686B006862
:102B2000406884B2202C01D100F0B0FC322C01D1DD
:102B300001F03AF8696B322009684860686B0068F8
:102B4000016841F001010160BDE838400148FFF72C
:102B500035BA00003001002038B5154C20680168F6
:102B600011F0100F1FD0C16811F0100F1BD00168B9
:102B700040680090606B0068016821F0010101600D
:102B8000606B0068406880B2C0F11E0040B200F087
:102B900049FD616B1E2009684860606B0068016830
:102BA00041F001010160BDE838400148FFF706BA75
:102BB00070010020FEE70907090E002804DB00F180
:102BC000E02080F80014704700F00F0000F1E020D2
:102BD00080F8141D704702E008C8121F08C1002ABF
:102BE000FAD170477047002001E001C1121F002A8E
:102BF000FBD17047D0ED160A184A30EE800ADFED9F
:102C0000180A10EE101A914201DD30EE600AB5EE9E
:102C1000C00AF1EE10FA01D230EE200AD0ED180A07
:102C2000F5EEC00AF1EE10FA06DDF4EEC00AF1EEA0
:102C300010FA01D2B0EE600AD0ED190AF5EEC00A22
:102C4000F1EE10FA06DDF4EEC00AF1EE10FA01DD45
:102C5000B0EE600A80ED160A704700000000B44331
:102C60000000B44300B58BB000200121CDE906017E
:102C70000590009001900290039004900E20CDE901
:102C8000081069460548FDF775FF0448FEF768FA25
:102C900002210248FDF7EEFE0BB000BD70000020DF
:102CA00070B51E4E0D46002404EB840106EB411165
:102CB000098881422DD1FEF7F9FC04EB840106EB73
:102CC0004114A066A06918B1012801D002281FD1C3
:102CD000288840BA2081FDF7C5FB9FED111B53ECFE
:102CE000112BFDF7CDFA9FED101B53EC112BFDF7C7
:102CF00039FBFDF7C4FBE060688840BA00B200EE23
:102D0000100AB8EEC00A84ED040AA88840BAA0826E
:102D100070BD641C142CC7DB70BD0000FC070020D4
:102D200000000000008076400000000000FFBF406F
:102D30002DE9F041434C90B0206810B9FEF7B6FC85
:102D40002060FEF7B3FC2168401A0A2876D33E4A79
:102D50000DAF002407CA87E807003C4E25464FF018
:102D6000080809950A9557F82420CDE904580192DE
:102D700003958DF81850002101EB810006EB4010FF
:102D80004388934212D1B0F804C0BCF1010F0DD1B9
:102D900090ED170ABDEEC00A10EE10CA4FEA1C2CC7
:102DA0008DF824C010EE10CA8DF825C0934212D1C0
:102DB000B0F804C0BCF1020F0DD190ED170ABDEEC2
:102DC000C00A10EE10CA4FEA1C2C8DF826C010EE77
:102DD00010CA8DF827C0934212D1B0F804C0BCF1DC
:102DE000030F0DD190ED170ABDEEC00A10EE10CA08
:102DF0004FEA1C2C8DF828C010EE10CA8DF829C09F
:102E000093420FD18388042B0CD190ED170ABDEEAD
:102E1000C00A10EE100A000A8DF82A0010EE100AFF
:102E20008DF82B00491C1429A6DB012309AA01A94E
:102E30000748FDF731FE641C032C92DB10B0BDE89F
:102E4000F081000024000020CC440008FC07002092
:102E500070000020FEF738FCFFF7CAFCFFF726FBE6
:102E6000FFF7F6FAFFF79CFAFFF7C6FBFFF706FC41
:102E7000FFF724FCFFF7C8FAFFF7E4FB01223C212F
:102E80002448FEF70DFC0122D1022348FEF708FC7E
:102E9000012291032148FEF703FC214C012211027B
:102EA0002046FEF7FDFB012280212046FEF7F8FBBD
:102EB000012240212046FEF7F3FB0122202120467B
:102EC000FEF7EEFB012210212046FEF7E9FB01226E
:102ED00008212046FEF7E4FB012204212046FEF7EC
:102EE000DFFB012202212046FEF7DAFB00F090F81A
:102EF00000F05AFE00F06CFEFFF7B4FE032000F075
:102F0000DDFB00F07FFD00F0E3FD00F037FEFFF792
:102F10000FFFF6E7001C02400010024000140240C0
:102F2000001802402DE9F047002000F02DF8DFF8EE
:102F3000549000245FF0000609EBC60000EBD400BB
:102F4000002507784FFA86F8380604EB050041B2F1
:102F500001D5012200E00022404600F035F8780655
:102F60006D1C070EEDB2082DEED3761CF6B2802E46
:102F7000E2D30834E4B2402CDCD3BDE8F04700F0E3
:102F8000DDB80000CA400008F0B500210D4BFF2657
:102F90000C46002201280FD003EBC20580B16F5C04
:102FA000C7F1FF076F54521CD2B2802AF2D9491CD4
:102FB000C9B20829EDD3F0BD03EBC2056E54F2E7A8
:102FC0006C54F0E73003002070B5802817D2002938
:102FD00015DB3F2913DCCB1701EB5375C5F3C70392
:102FE00025F007050124094E491B8C4006EBC00063
:102FF000012A05D0C15C022A05D0A143C15470BD8D
:10300000C15C2143FAE76140F8E70000300300208B
:1030100070B5494D4FF48064002221462846FEF7E2
:103020003FFB4FF4FA70FEF73FFA01222146284693
:10303000FEF736FB0021AE2000F0B0F80021084674
:1030400000F0ACF80021102000F0A8F8002140208A
:1030500000F0A4F80021812000F0A0F80021CF208A
:1030600000F09CF80021A12000F098F80021C82071
:1030700000F094F80021A62000F090F80021A8208C
:1030800000F08CF800213F2000F088F80021D320C8
:1030900000F084F80021084600F080F80021D520D7
:1030A00000F07CF80021802000F078F80021D92081
:1030B00000F074F80021F12000F070F80021DA200F
:1030C00000F06CF80021122000F068F80021DB20ED
:1030D00000F064F80021402000F060F8002120207A
:1030E00000F05CF80021022000F058F800218D204B
:1030F00000F054F80021142000F050F80021A42022
:1031000000F04CF80021A62000F048F80021AF2084
:1031100000F044F80021AF2000F040F80020FFF755
:1031200033FF0021084600F023F8FFF7FBFEBDE85F
:10313000704000F003B800000004024070B50B4E70
:1031400000242146002000F013F8002506EBC500FE
:103150000121005D00F022F86D1CEDB2802DF5D349
:10316000641CE4B2082CECD370BD000030030020D6
:1031700010B5801CC4B2B031C8B2002100F00EF806
:10318000102040EA1410002100F008F804F0F000CC
:10319000BDE81040002100F001B8000013B5084858
:1031A0004FF4007309B1012200E000221946FEF736
:1031B00077FA0A23012269460248FEF73BFE1CBD4E
:1031C000000402409800002090F8301000291CD123
:1031D000416891ED000A80ED080A0168D1ED000A0E
:1031E000C0ED090AD0ED070AB4EEE00AF1EE10FADC
:1031F00006DCD0ED060AB4EEE00AF1EE10FA01D2D8
:10320000C0ED080A012180F83010704780ED0D0AEA
:10321000704710B5044690F83000002864D020684C
:10322000D0ED001AA06890ED000A70EE610A94EDEE
:103230000D0AB5EEC00AF1EE10FA13DDB6EE001A73
:1032400020EE011AF4EEC10AF1EE10FA01DD70EE83
:10325000C00AB1EE411AF4EEC10AF1EE10FA01D241
:1032600070EE200A94ED080A94ED041A01EE200A8B
:1032700084ED080A94ED071AB4EEC10AF1EE10FAD3
:1032800002DD84ED081A08E094ED062AB4EEC20AC5
:10329000F1EE10FA01D284ED082A94ED090AD4ED7A
:1032A000032A31EEC02A94ED080A02EEA00AD4EDFA
:1032B000050A00EEC20AB4EEC01AF1EE10FA02D20C
:1032C000B0EE410A08E0D4ED060AF4EEC00AF1EED1
:1032D00010FA01DDB0EE600A606880ED000AC4ED0E
:1032E000091AFEF7E3F9A06210BD000010B504460C
:1032F0002DED028B002084E80E009FED188AB0EEC1
:10330000602AF0EE402A84F83000F0EE411ADFED3A
:10331000120AB0EE480A204600F03EF80A20E062A9
:103320000021204600F01CF8B0EE611AF0EE420ACF
:10333000B0EE620A204600F075F8FEF7B7F9E16AD0
:10334000401AA0622046FFF73FFF84ED0D8A204619
:10335000BDEC028B10BD000000007F4300000000A8
:1033600090F83020AAB190F838208A4211D090ED20
:10337000030AB1EE400A80ED030A90ED040AB1EEB3
:10338000400A80ED040A90ED050AB1EE400A80ED96
:10339000050A80F838107047B4EEE00AF1EE10FA32
:1033A0002BDA80ED060AC0ED070A90F830100029EC
:1033B00023D0416891ED001AB4EEE01AF1EE10FA54
:1033C00002DDC1ED000A06E0B4EEC01AF1EE10FA1B
:1033D00001D281ED000A90ED080AD0ED070AB4EEA3
:1033E000E00AF1EE10FA06DCD0ED060AB4EEE00ACF
:1033F000F1EE10FA01D2C0ED080A704710B590ED59
:10340000030A0446B5EEC00AF1EE10FA08D0FEF742
:103410004DF9A16A401AE16A884201D3012010BD2A
:10342000002010BDB5EEC00AF1EE10FA2BD3F5EE78
:10343000C00AF1EE10FA26D3B5EEC01AF1EE10FA7A
:1034400021D3D0ED0B1ADFED102A80ED030AB8EE80
:10345000612AC2EE221A81EE212A60EEA10AC0ED95
:10346000040A80ED052A90F8381001290BD1B1EE3D
:10347000400A80ED030AB1EE600A80ED040AB1EE65
:10348000420A80ED050A704700007A442DE9F05F9A
:103490002DED028BFEF70AF95E49282208605E498D
:1034A00001F12800FCF7D1FEDFF86CB15A4CABF10A
:1034B000140B0026BBF80000C0F30A05A5F58065D3
:1034C00025809BF80100C2089BF8020042EA4012E6
:1034D000C2F30A02A2F5806262809BF80330800981
:1034E00040EA83009BF80430521D40EA8320C0F379
:1034F0000A00A0F58060A0805B089BF805700A2A8E
:1035000043EAC711C1F30A01A1F58061E18000D847
:103510006680401D0A2800D8A680491D0A2900D8C7
:10352000E6802846FCF78DFF9FED3C8B53EC182B73
:10353000FCF718FFFCF7A3FFA060B4F90200824675
:10354000FCF77FFF53EC182BFCF70CFFFCF797FF01
:10355000E060B4F904008146FCF773FF53EC182BCC
:10356000FCF700FFFCF78BFF2061B4F906008046F2
:10357000FCF767FF53EC182BFCF7F4FEFCF77FFF1A
:103580006061B9092176C7F3011161764FF4A56135
:1035900005F5257558468D4200D926800AF5257215
:1035A0008A4200D9668009F525728A4200D9A68030
:1035B00008F525728A4200D9E680C18861830189B5
:1035C000A1834189E183017B84F82010417B84F849
:1035D0002110C1896184BBF810004FF42571A0F55A
:1035E000806000B2A084884205DC4042A084BDEC2B
:1035F000028BBDE8F09F4FF4257210FB02F043F6FA
:10360000C61290FBF2F000B2A0848842EFDDA184E4
:10361000EDE70000100000204407002066666666A3
:1036200066661A4070B5234D2878B5F80110A528B4
:103630004CBA3DD1FEF73AF81F490860B5F80500CD
:1036400043BA042B25D00BDC012B19D01948323892
:10365000022B1AD0032B2BD1E91D2246001D0BE0B3
:10366000052B1BD0A3F58073013B1CD0012B1FD170
:103670001048E91D2246001FBDE87040FCF7E5BD7B
:103680000C48E91D22463238F6E7E91D2246C01CE7
:10369000F2E70848E91D22460E38EDE70548E91D26
:1036A00022460B38E8E70348E91D22460838E3E7DD
:1036B00070BD0000CA070020140000202DE9F0476B
:1036C00064282DED068B01D96438C0B2032803D0DD
:1036D000042801D005287DD1A3A1A648FCF7C7FD89
:1036E000A44C00256C3C40F20120A561461E2080C0
:1036F00066800127A7809FEDA08A04F158031A1D58
:10370000A2F14C0101F10C00B0EE481AF6EE000AED
:10371000B7EE000A8046FFF7E9FDDFED988AF0EE8C
:10372000680A9FED979A4046B0EE490AFFF734FECB
:1037300094A104F58670FCF79AFDB01CC4F8B8504B
:10374000A4F8A00004F1F8031A1DA2F14C01A4F89A
:10375000A2604FF0020801F10C00A4F8A480B0EEC2
:10376000481AF6EE000AB7EE000A8146FFF7BEFDE2
:10377000F0EE680AB0EE490A4846FFF70DFE84A154
:1037800004F5D670FCF773FDF01CC4F85851A4F88A
:10379000400104F5CC731A1DA2F14C01A4F842615A
:1037A0004FF0030901F10C00A4F84491B0EE481A5F
:1037B000F6EE000AB7EE000A8246FFF797FDF0EE3C
:1037C000680AB0EE490A5046FFF7E6FD73A104F51A
:1037D000137000E0C3E0FCF74AFD301DC4F8F85157
:1037E000A4F8E00104F50E73A4F8E26104201A1DA8
:1037F000A4F8E401A2F14C0101F10C00B0EE481A6A
:10380000F6EE000AB7EE000A0546FFF76FFDF0EE90
:10381000680AB0EE490A2846FFF7BEFD62A104F52A
:103820006370FCF724FD701DC4F83873A4F82003FE
:10383000851FA4F82253A4F824739FED5F0A84ED3A
:10384000E10A9FED5E0A84EDE00A9FED5D0AB0EEAD
:10385000481A84EDDE0ADFED5B8A04F55E739FEDA6
:103860005A9A1A1DA2F1500101F11000F0EE680AF7
:10387000B0EE490A0646FFF739FDDFED549A3046AF
:10388000B0EE690AFFF7C2FC9FED51AAF0EE4A0ABA
:10389000DFED50AA3046B0EE6A0AFFF77DFD4EA17B
:1038A00004F53B70FCF7E3FCE81DC4F89872A4F83B
:1038B0008002A4F88252A4F884829FED4B0A84ED22
:1038C000B90A9FED4A0A84EDB80A9FED490A04F54A
:1038D00036731A1DA2F1500184EDB60A01F11000F1
:1038E000B0EE481AF0EE680AB0EE490A0646FFF755
:1038F000FDFCB0EE690A3046FFF788FCF0EE4A0A9C
:10390000B0EE6A0A3046FFF747FD3AA104F22C40B8
:10391000FCF7ADFC40F20720C4F8D883A4F8C0033C
:1039200004F583631A1DA4F8C253A2F14C01A4F854
:10393000C49301F10C00B0EE481AF6EE000AB6EEA0
:10394000000A0446FFF7D2FCBDEC068B2046BDE81A
:10395000F047DFED2A0A9FED2A0AFFF71DBDBDECF7
:10396000068BBDE8F087000046524F4E545F4C4531
:103970004654000068080020000000000000804657
:10398000000080C646524F4E5420524947485400CA
:103990004241434B20524947485400004241434B67
:1039A000204C454654000000544F5552454C4C4560
:1039B00020504954434800007B9474435C2F924349
:1039C000B83E88430000C842000048430000B443AA
:1039D0000060EA460060EAC6544F5552454C4C45DB
:1039E0002059415700000000856BDD4252389A4350
:1039F0008FC25043464545444552000000401C4696
:103A000000401CC610B50E4CE06810B9FDF74EFE24
:103A1000E060FDF74BFEE168401AB0F57A7F07D908
:103A2000FDF744FEE0600748416981F400614161AF
:103A300000F00AF800F036F8BDE8104000F01CB8BD
:103A4000100000200010024010B5FDF72FFE0849BD
:103A50000968421A07484FF48071B2F5FA7F01D223
:103A6000002200E00122BDE81040FDF719BE000071
:103A7000100000200018024010B5FDF717FE07499E
:103A80008968411A0648642901D2002200E0012217
:103A9000BDE810404021FDF703BE000010000020EB
:103AA0000018024010B5FDF701FE07494968411AA8
:103AB0000648B1F5FA6F01D2002200E00122BDE80C
:103AC00010408021FDF7ECBD1000002000180240DE
:103AD00010B5244C24482DED028BB2EE0E8AD4EDA5
:103AE000030A80EE880AFFF785F8D4ED020A1E4823
:103AF00080EE880AA038FFF77DF81B48217EE03071
:103B0000012904D0022929D0032907D102E09FED21
:103B1000170A01E09FED160A80ED060AB4F90420A9
:103B2000B4F90610501800EB40004000511A01EBA8
:103B3000410100EE100A490000EE901AB8EEC00AEA
:103B40000C48F8EEE00A80ED160AC0ED3E0A80ED62
:103B5000660AC0ED8E0ABDEC028B10BD9FED060A11
:103B6000DAE70000440700201C0B002000000000E2
:103B700000409C45FC07002000401C4670B5094EE3
:103B8000002400BF04EB840006EB40151C352846DA
:103B9000FFF734FC10B12846FFF73BFB641C142CE4
:103BA000F0DB70BDFC070020074882B000680168A8
:103BB00041680091C16841F01001C160322203499F
:103BC000014802B000F018B8300100203007002092
:103BD000074882B00068016841680091C16841F0FF
:103BE0001001C1601E220349014802B000F004B870
:103BF00070010020CA07002070B5044690F83A0012
:103C0000202801D0022070BD99B192B1A162A28595
:103C10000020E063134620680A46656B011D2846B4
:103C2000FDF71EFC2068416941F040014161002020
:103C300070BD012070BD0000000000000000010206
:103C4000030406070809000000000102030400063F
:103C50001016000610160000000000000000000012
:103C60000000000000003F400000000000000000D5
:103C70003000400030004000000009000BC03D0053
:103C80000BC03D00090018C024407FE02240318075
:103C90000000180024C01B000D803240018003800A
:103CA0001C4027401C8007400040100060000000BE
:103CB0000000000000000000000000001F80204005
:103CC00040200000402020401F800000000009002C
:103CD00006001F80060009000000040004003F8069
:103CE000040004000000001000600000000000005C
:103CF00000000400040004000400040000000000B0
:103D000000400000000000000000002001C006008C
:103D10003800400000001F802040204020401F80CD
:103D20000000000010403FC000400000000018C02C
:103D300021402240244018400000108020402440B0
:103D400024401B80000002000D0011003FC0014014
:103D500000003C80244024402440238000001F8039
:103D6000244024403440038000003000200027C05D
:103D70003800200000001B802440244024401B8089
:103D800000001C0022C0224022401F8000000000D2
:103D90000000084000000000000000000000046077
:103DA000000000000000000004000A001100208054
:103DB0004040090009000900090009000000000056
:103DC0004040208011000A00040018002000234019
:103DD0002400180000001F802040274029401F4079
:103DE0000000004007C039000F0001C00040204023
:103DF0003FC0244024401B8000001F802040204002
:103E000020403080000020403FC0204020401F80E4
:103E1000000020403FC024402E4030C00000204021
:103E20003FC024402E00300000000F0010802040D2
:103E300022403380020020403FC0040004003FC005
:103E40002040204020403FC0204020400000006033
:103E5000202020203FC02000200020403FC02440E0
:103E60000B0030C0204020403FC0204000400040B8
:103E700000C03FC03C0003C03C003FC000002040E9
:103E80003FC00C4023003FC020001F802040204046
:103E900020401F80000020403FC024402400180024
:103EA00000001F802140214020E01FA00000204092
:103EB0003FC02440260019C0004018C024402440C0
:103EC000224031800000300020403FC020403000C0
:103ED000000020003F80004000403F802000200084
:103EE0003E0001C0070038002000380007C03C0039
:103EF00007C038000000204039C0060039C020400B
:103F000000002000384007C038402000000030404A
:103F100021C02640384020C00000000000007FE0A3
:103F2000402040200000000070000C000380004092
:103F300000000000402040207FE000000000000062
:103F400020004000200000000000001000100010C1
:103F500000100010001000000000400000000000F1
:103F60000000000002800540054003C00040200022
:103F70003FC0044004400380000000000380044070
:103F800004400640000000000380044024403FC07D
:103F90000040000003800540054003400000000091
:103FA00004401FC0244024402000000002E00550CF
:103FB00005500650042020403FC00440040003C0C8
:103FC00000400000044027C0004000000000001036
:103FD0000010041027E00000000020403FC0014016
:103FE000070004C00440204020403FC00040004083
:103FF000000007C0040007C0040003C00000044024
:1040000007C00440040003C00040000003800440D7
:10401000044003800000041007F0045004400380B3
:104020000000000003800440045007F0001004402A
:1040300007C00240040004000000000006400540E4
:10404000054004C00000000004001F800440004040
:104050000000040007800040044007C00040040046
:10406000070004C0018006000400060001C007002C
:1040700001C006000000044006C0010006C0044064
:1040800000000410071004E0018006000400000096
:10409000044005C006400440000000000000040089
:1040A0007BE040200000000000000000FFF0000066
:1040B0000000000040207BE0040000000000400001
:1040C00080004000200020004000000000000000B0
:1040D00000000000000000000000000000000000E0
:1040E00000000000000000000000000000000000D0
:1040F00000000000000000000000000000000000C0
:1041000000000000000000000000000000000000AF
:104110000006000000000000001E0000000000007B
:1041200000DE00000000000000D8000000000000D9
:1041300000D800000000000000D8000000000000CF
:1041400000DE00000000000000FE00000000000093
:1041500000F60000000000000072000000000000F7
:104160000000000000000000007C000000000000D3
:1041700000FE00000000000000C60000000000007B
:1041800000C600000000000000C6000000000000A3
:1041900000FE000000000000007C000000000000A5
:1041A0000000000000000000001E000000000000F1
:1041B00000DE00000000000000D60000000000004B
:1041C00000D600000000000000D600000000000043
:1041D00000D600000000000000DE400000000000EB
:1041E00000FE600000000010006C70000000003055
:1041F00000007800000000F0007C7C00000007F068
:1042000000FE7E0000003FF000C67F000001FFF0CE
:1042100000C67F80000FFFF000C67FC0007FFFF068
:1042200000FE7FE003FFFFF0007C7FF03FFFFFF028
:1042300000027FF83FFFFFF000067FFC3FFFFFF02A
:10424000001E7FFE3FFFFFF000BC7FFF3FFFFFF03F
:1042500000E07FFFBFFFFF8000F87FFFFFFFFC0053
:10426000003E7FFFFFFFE000000E7FFFFFFF00002A
:1042700000B87FFFFFF8000000E07FFFFFF00000C4
:1042800000FE7FFFFFF00000001E7FFFFFF0000038
:1042900000027FFFFFF0000000007FEFFFF0020050
:1042A00000067FE7FFF00200000E7FE3FFF0020050
:1042B000001C7FE1FFF8030000BA7FE0FFFC030071
:1042C00000F67FE07FFE038000E67FE03FFF038093
:1042D00000F67FE03FFF83C0003E7FE03FFFC3C0AA
:1042E000000E7FE03FFFE3E000027FE03FFFF3E0EE
:1042F00000007FE03FFFFBF000027FE03FFFFFF0A8
:1043000000667FE03FFFFFF800F67FE03FFFFFF829
:1043100000D67FE03FFFFFFC00D67FF07FFFFFFC71
:1043200000D67FF8FFF7FFFE00D67FFFFFF3FFFE0A
:1043300000DE3FFFFFE1FFFF008C3FFFFFE0FFCF0C
:1043400000401FFFFFC07FC780C01FFFFFC03FC3EB
:1043500080C00FFFFF801FC1C0FE07FFFF000FC01E
:10436000C0FE03FFFE0007C060C001FFFC0003C0E9
:1043700020C0007FF00001C00086000F800000C058
:10438000001600000000004000D600000000000001
:1043900000D600000000000000D600000000000071
:1043A00000D600000000000000D600000000000061
:1043B00000D000000000000000C00000000000006D
:1043C0000006000000000000001E000000000000C9
:1043D00000DE00000000000000D800000000000027
:1043E00000D800000000000000D80000000000001D
:1043F00000DE00000000000000DE00000000000001
:1044000000F6000000000000007200000000000044
:10441000000000000000000000620000000000003A
:1044200000F600000000000000F6000000000000A0
:1044300000D600000000000000D6000000000000D0
:1044400000D600000000000000DE000000000000B8
:10445000008C0000000000000000000000000000D0
:10446000000000000000000000000000000000004C
:10447000000000000000000000000000000000003C
:10448000000000000000000000000000000000002C
:10449000000000000000000000000000000000001C
:1044A000000000000000000000000000000000000C
:1044B00000000000000000000000000000000000FC
:1044C00000000000000000000000000000020000EA
:1044D000FF010000FF020000F84400080000002077
:1044E00028000000D62B00082045000828000020E6
:1044F00058180000E62B00080024F400010000001A
:10450000100000000000000000000000000000009B
:10451000000000000000000000000000000000009B
:04000005080001AD41
:00000001FF
